:020000040800F2
:10000000404700200D030008DD5F0008055500088B
:10001000D55D0008D31F0008098600080000000015
:100020000000000000000000000000007502000851
:10003000BF2A000800000000B90200081969000882
:1000400027030008270300082703000827030008E8
:1000500027030008270300082703000827030008D8
:100060002703000827030008270300084D2A00087B
:10007000592A000827030008652A0008712A000889
:100080007D2A0008892A0008511E0008270300085D
:100090002703000827030008270300082703000898
:1000A0002703000827030008270300082703000888
:1000B000396C0008456C0008270300082703000876
:1000C0002703000827030008270300082703000868
:1000D00027030008298500083585000841850008A8
:1000E00027030008270300082703000800F002F890
:1000F00000F0B0F80AA090E8000C82448344AAF112
:100100000107DA4501D100F0A5F8AFF2090EBAE80F
:100110000F0013F0010F18BFFB1A43F0010318473B
:1001200010AC000030AC00000A444FF0000C10F896
:10013000013B13F0070408BF10F8014B1D1108BF65
:1001400010F8015B641E05D010F8016B641E01F805
:10015000016BF9D113F0080F1EBF10F8014BAD1C55
:100160000C1B09D16D1E58BF01F801CBFAD505E073
:1001700014F8016B01F8016B6D1EF9D59142D6D3CD
:10018000704700000023002400250026103A28BFF5
:1001900078C1FBD8520728BF30C148BF0B607047F9
:1001A0006E2900F00383702900F04D8466290AF05F
:1001B000808265290AF07D8267290AF07A826129A6
:1001C0000AF0798203681B0A28BF41F0800169297F
:1001D00000F0B082642900F0AD82752900F0AA8297
:1001E0006F2900F0DA83782900F01984E92900F0FA
:1001F0007583E42900F07283F52900F06F83EF29FD
:1002000000F0D783F82900F018840368DB0928BFC1
:1002100041F08001632901F01F81732901F02481DD
:10022000E32901F02F81F32901F034810020704788
:100230001FB501F085F904000020002109F0DEFE61
:10024000401C60600020002109F0C2FEE0601FBD7C
:1002500010B510BD01F046F91146FFF7E9FF08F0AF
:10026000D5FA01F023FA03B4FFF7F2FF03BC08F05C
:1002700003FA0000224B19680868B0E8F00F80F319
:100280000988BFF36F8F4FF0000080F311884EF0A4
:100290000D0E70470000000006480068006880F3FB
:1002A000088862B661B6BFF34F8FBFF36F8F00DF70
:1002B00000BF00BF08ED00E0EFF30980BFF36F8FD0
:1002C0000F4B1A6820E9F00F106008B54FF050008E
:1002D00080F31188BFF34F8FBFF36F8F09F070F970
:1002E0004FF0000080F31188BDE8084019680868E5
:1002F000B0E8F00F80F30988BFF36F8F704700BF3D
:1003000030000020EFF30580704700000948804767
:1003100009480047FEE7FEE7FEE7FEE7FEE7FEE7E7
:10032000FEE7FEE7FEE7FEE704480549054A064BFF
:1003300070470000AB690008ED0000084041002054
:100340004047002040430020404300207047B2F166
:1003500020030AD5C2F1200320FA02F001FA03F3C8
:1003600021FA02F140EA0300704721FA03F04FF04E
:10037000000170477CB51D4616460C00009001D068
:100380002044401E074B7B442A4669460190304674
:1003900000F025FA05461CB10020694600F032FA4B
:1003A00028467CBD8504000040EA010310B59B0788
:1003B0000FD1042A0DD310C808C9121F9C42F8D0CF
:1003C00020BA19BA884201D9012010BD4FF0FF3080
:1003D00010BD1AB1D30703D0521C07E0002010BD96
:1003E00010F8013B11F8014B1B1B07D110F8013B22
:1003F00011F8014B1B1B01D1921EF1D1184610BD03
:1004000010B5431C02E010F8011B71B18107FAD14D
:100410004FF0013202C88C1A8C4314EAC211F9D091
:10042000C01A0A0603D0C01E10BDC01A10BD0A04AF
:1004300001D0801E10BD0902FCD0401E10BD032A51
:1004400040F2308010F0030C00F0158011F8013BF1
:10045000BCF1020F624498BF11F801CB00F8013BD8
:1004600038BF11F8013BA2F1040298BF00F801CB9C
:1004700038BF00F8013B11F0030300F02580083A73
:10048000C0F0088051F8043B083A51F804CBA0E8CA
:100490000810F5E7121D5CBF51F8043B40F8043B1F
:1004A000AFF30080D20724BF11F8013B11F801CB54
:1004B00048BF11F8012B24BF00F8013B00F801CB25
:1004C00048BF00F8012B704710B5203AC0F00B80F0
:1004D000B1E81850203AA0E81850B1E81850A0E848
:1004E0001850BFF4F5AF5FEA027C24BFB1E81850A2
:1004F000A0E8185044BF18C918C0BDE810405FEA12
:10050000827C24BF51F8043B40F8043B08BF70478D
:10051000D20728BF31F8023B48BF11F8012B28BF92
:1005200020F8023B48BF00F8012B704702F0FF03A0
:1005300043EA032242EA024200F002B84FF000020E
:100540000429C0F0128010F0030C00F01B80CCF1E5
:10055000040CBCF1020F18BF00F8012BA8BF20F853
:10056000022BA1EB0C0100F00DB85FEAC17C24BFA7
:1005700000F8012B00F8012B48BF00F8012B704751
:100580004FF0000200B5134694469646203922BF2C
:10059000A0E80C50A0E80C50B1F12001BFF4F7AF77
:1005A000090728BFA0E80C5048BF0CC05DF804EB59
:1005B000890028BF40F8042B08BF704748BF20F8C7
:1005C000022B11F0804F18BF00F8012B704700007C
:1005D0004FF0013C50F8042B51F8043B9A4221D1D2
:1005E000A2EB0C03934313EACC1317D150F8042B5E
:1005F00051F8043B9A4215D1A2EB0C03934313EA42
:10060000CC130BD150F8042B51F8043B9A4209D17A
:10061000A2EB0C03934313EACC13DBD04FF00000A2
:10062000704700BFD01A01BAB1FA81F101F0180188
:1006300022FA01F0CB40C1F12001DBB2C0B2C01AF6
:100640002CFA01F3D11A914311EAC311E6D1704794
:10065000704770477047704710B500F0C3FA0068E4
:1006600010BD10B5044600F0BDFA046010BD70B5B1
:10067000044685690068C10601D5302600E02026C1
:10068000C00707D070BDD4E9012130469047206AE9
:10069000401C20626D1EF6D570BD70B5044685699C
:1006A0000078C00707D170BDD4E901212020904710
:1006B000206A401C20626D1EF6D570BD09684A058F
:1006C00001D540B27047C905FCD500B27047096832
:1006D0004A0501D5C0B27047C905FCD580B2704744
:1006E00070B50C460546012A05D02878800600D54D
:1006F000EA69002302E0012305E05B1C934202D279
:10070000E05C0028F9D1A869E618C01AA861286A37
:10071000184428622846FFF7AAFF04E0D5E9012122
:1007200014F8010B9047B442F8D32846FFF7B5FF01
:1007300070BD00002DE9F0410646002410687529BF
:10074000314616A510D0FFF7B9FF002802DA404263
:1007500013A507E031688A0701D512A502E0490711
:1007600004D511A5012401E0FFF7B1FF00210A2201
:1007700006F1240709E0B0FBF2FCB0FBF2F302FB48
:100780001C00303078541846491C0028F3D1234609
:100790002A463046BDE8F04100F06DBA0000000086
:1007A0002D0000002B0000002000000011680268EE
:1007B000006A530501D508700AE0D30501D5088009
:1007C00006E0130603D5C217C1E9000200E0086085
:1007D0000120704701694A1C02610878704700B522
:1007E0008FB0CDE901310021059105497944CDE96A
:1007F00003101146684600F031F90FB000BD00004B
:10080000E5FFFFFF0A6802F8010B0A607047D1E9B3
:1008100000239A4202D2531C0B60107070470000F4
:100820002DE9FF5F15468A460446DFF8AC80F844A0
:100830000027D8E900103E46CDE9001010E03AF854
:1008400016106A4602A800F029FE411C07D0217844
:10085000890603D5E269391891420DD80744761C00
:100860002078800602D5E069B84205DDAE42E6DBBD
:100870003AF816000028E2D1A069C01BA06120460A
:10088000FFF7F5FED8E90010CDE90010002017E0D1
:100890003AF818106A4602A800F000FEB0F1FF3FD7
:1008A00081460BD000250DF1080B05E0D4E90121AC
:1008B0001BF8050090476D1C4D45F7D308F101006A
:1008C000B0428046E4DB206A384420622046FFF7CD
:1008D000E4FEBDE8FF9F000006A100002DE9F04105
:1008E0008046D21D22F007020025D2E90002F52938
:1008F00015A614D0011E72F1000106DA0023D0EB18
:10090000030063EB020211A608E0D8F800108B0781
:1009100001D50FA602E0490701D50EA60125114613
:10092000002408F1240704E000F060F930323A5561
:10093000641C50EA0102F7D12B463246214640465C
:10094000BDE8F04100F097B9000000002D00000064
:100950002B0000002000000030B4002100F124042E
:1009600008E002F00705D208303542EA4372DB089E
:100970006554491C52EA0305F3D10468002310A210
:10098000250707D5A40600D421B1C46901230DA20F
:10099000641EC46130BC00F06EB910B50446214637
:1009A0001068FFF794FE02462046BDE81040002381
:1009B000D2E7D21D22F00701D1E90023CCE70000E5
:1009C0000000000030000000F0B40D460188090569
:1009D00002D5214C7C4402E01F4C7C440E340021A3
:1009E00000F1240608E002F00F071209E75D42EA71
:1009F00003721B097754491C52EA0307F3D10278AA
:100A00000023120704D5702D06D009B1022311343A
:100A10002246F0BC00F02FB901231034F8E770B57E
:100A200004460D4621461068FFF751FE024629464E
:100A30002046BDE870400023C6E7D21D22F0070320
:100A4000D3E90023C0E70368126843F02003036082
:100A50000823C3610023B7E7689F00002DE9F05F1A
:100A6000894604464FF0000ADFF874B1FB44C0F831
:100A700020A02046E1688847002874D0252806D0A9
:100A8000D4E901219047206A401C2062F1E700264A
:100A90005F462046E16888472028054607DB312D60
:100AA00005D2781910F8200C08B10643F1E7B00719
:100AB00001D526F00406C4F81CA00027C4F818A02D
:100AC0002A2D09D0284607F0D0FD38B304EB87085B
:100AD000303DC8F8185019E059F8041B204604EBC3
:100AE00087029161E1688847012F054618D1E069C6
:100AF000002820DA26F020061DE0D8F8180000EBC8
:100B0000800005EB40003038C8F818002046E16846
:100B10008847054607F0A9FD0028EED1012F0AD02D
:100B20002E2D08D12046E16888477F1C0546022FFC
:100B300046F02006C4DBA069002803DA404246F0F4
:100B40000106A061F00701D026F010066C2D0BD035
:100B5000682D09D04C2D39D06A2D35D0742D35D063
:100B60007A2D33D016E038E0E1682F4620468847DA
:100B7000B842054609D16C2F26D04FF48060E16859
:100B8000064320468847054604E06C2F1AD04FF4F0
:100B9000807006430DB3A5F14100192802D8203515
:100BA00046F400664A462946204626604E46FFF730
:100BB000F7FA80B101280BD0F61D26F0070000F1EE
:100BC000080956E74020E4E78020D8E70020D6E770
:100BD00006F104094DE7284652E7206ABDE8F09F78
:100BE000F89E000000487047E040002030B5B0F1AA
:100BF0000A024FEA900E71F100034EEA817EB0EBDB
:100C00000E0061EB91014FEA101E4EEA017E10EBDF
:100C10000E0041EB11114FEA102E4EEA016E10EB5F
:100C20000E0041EB11214FEA104E4EEA014E10EB3F
:100C30000E0041EB1141401841F100014FEAD00094
:100C400040EA41704FEAD10110EB80054FEA810480
:100C500044EA907444EB01046D1944EB0404521B04
:100C6000A3414FF0000348BF0A3200D530BD401CFD
:100C700041F1000130BD2DE9F0470D4699469246FD
:100C8000044600F124080168880604D5E06921F0D3
:100C90001001216000E00120A84201DD471B00E0B7
:100CA0000027A1697A1902EB0900081AA0612078CF
:100CB000C00602D42046FFF7DAFC002608E0D4E99B
:100CC00001211AF806009047206A401C761C206219
:100CD0004E45F4DB2078C0060AD52046FFF7C7FC56
:100CE00006E0D4E9012130209047206A401C2062B0
:100CF000381EA7F10107F4DC07E0D4E9012118F858
:100D000005009047206A401C2062281EA5F10105BD
:100D1000F3DC2046FFF7C1FC2078000602D5022054
:100D2000BDE8F0870120FBE770472DE9FF4F0C4637
:100D30001E464FF0FF378BB0D2E90001DDF860802E
:100D40000A908A46C1F30A5505B93D460021084676
:100D50004FF00000BAF1000F00F4400005DA00EB9C
:100D600080004FF4400101EA50004FEA9059B9F178
:100D7000010F00DDB9460A9850EA4A000ED044F649
:100D80001050A5F2FF3545432F14B8F1000F1ED0C7
:100D90007542291E1EDDC9F100021CE0B8F1010FE9
:100DA0004FF0000001D0302103E0F24305E0215470
:100DB000401CB042FBDB30460022002121540B993D
:100DC000C1F80880C1E900200FB0BDE8F08FBD1B5D
:100DD0006D1CDEE74A4600DA694206A800F0F4FB23
:100DE00006AB93E8070003AB83E8070050460A9977
:100DF00000F065FC8DE80700A0F500501F3800905A
:100E00000398002D0ADD42F21F014A4608440023E0
:100E100003A90390684600F0CEFE09E0A0F500505B
:100E20004A461F38002303A90390684600F0D8FE05
:100E30008DE807000004000C03D04FF0FF3041089C
:100E400000E01046B8F1000F03D0002200921546D2
:100E50001EE0751E05D4FFF7C9FE303262556D1EC7
:100E6000F9D5B3460122084302D000227F1C04E0DA
:100E70002078302801D100227F1E002A099784D0D3
:100E80001DE0112D07DAFFF7B1FE303262556D1CFF
:100E900050EA0102F5D1084302D00098C8B10EE033
:100EA0000021681E05E0235C625C63542254401EEE
:100EB000491C8142F7DBAB46A81B401E099000206D
:100EC00004F80B000B98099AC0F80880C0E9002BC1
:100ED0007AE711264FF0000857E72DE9F04F8846D2
:100EE0000446D21D22F0070191B0D1E90001CDE9FD
:100EF0000A0107F08AFB02460B98C00F01D02D2093
:100F000007E02068810701D52B2002E0202101EABB
:100F1000C000032A099001D0072A05DB0346414699
:100F2000204600F011FB0BE12078800601D5E06936
:100F300000E00620B8F1650F814606D0B8F1660FD3
:100F400018D0B8F1670F70D131E00020B9F1110F5E
:100F5000009001DB112301E009F101030AAA01A9B4
:100F60000CA8FFF7E2FEDDE90C70002609F101058F
:100F7000834647E001204B4600904FF000470AAA05
:100F800001A90CA8FFF7D1FEDDE90DB00C995D4673
:100F9000002610B909F101000D18B9EB050003D4C2
:100FA000C0F1FF3609F10105A5EB09002BE0B9F10D
:100FB000010F01DA4FF001090020B9F1110F009083
:100FC000484601DD112300E003460AAA01A90CA846
:100FD000FFF7ABFEDDE90C704D4600268346207816
:100FE00000070AD4AB4500DA5D4601A8012D04DDF7
:100FF000411911F8011C302907D04F4502DA17F1C9
:10100000040F04DA012082460FE06D1EEEE7002F88
:1010100002DCED1B3E4403E0781CA84200DD7D1C91
:10102000B81B00F1010A4FF000472078000703D4F5
:10103000AA4501DB4FF0FF3A0021B7F1004F0DF157
:1010400043088DF8431024D002202B23002F01DA0F
:101050007F422D230A21021EA0F1010000DC5FB1B6
:1010600097FBF1FC97FBF1F201FB1C7C17460CF19E
:10107000300C08F801CDEEE7A8F1010003702188DB
:10108000090501D5452100E06521A0F1010800F81E
:10109000011C09980FA9A1EB0807FF1D00B1012051
:1010A000411901EBEA70A1693844081A401EA06199
:1010B0002078C00602D42046FFF7D9FA099828B153
:1010C000D4E901219047206A401C20622078C006A4
:1010D00022D52046FFF7CBFA1EE0002E04DBB345F5
:1010E00002DD01A8805D00E03020D4E901219047B5
:1010F000206A401C2062761CAAF101005FEA000A07
:101100000AD100F01DFAC0680168405CD4E90121F1
:101110009047206A401C2062281EA5F10105DCDCF6
:1011200007E0D4E9012118F8010B9047206A401C20
:101130002062381EA7F10107F3DC2046FFF7ADFA65
:10114000032011B041E600002DE9F04F04460D46A2
:10115000D21D22F0070089B0D0E9009748463946F1
:1011600007F053FA0246F80F01D02D2307E020685C
:10117000810701D52B2302E0202101EAC0038DF86D
:1011800020300BB1012000E00020032A824601D06C
:10119000072A04DB2946204600F0D6F93FE12078F3
:1011A000800601D40D2500E0E569C7F30A560D2D30
:1011B00049DA00214FEA175B08464FF00000002F84
:1011C00000F4400007DA00EB80004FF4400100EB30
:1011D000D07001EA60008115012901DD4FF0FF3177
:1011E00000224FEA850CBCF1180F06D31346ACF170
:1011F00018004FF08052C24003E04FF4801323FAEE
:101200000CF30CF10C0CBCF1200F04D3ACF1200C4E
:1012100009FA0CF001E007FA0CF000294FF0004841
:1012200001DD18B90FE00ED140450CD319EB0209CE
:101230005F4121B9404502D19F4329EA0209BBEB36
:10124000175F00D0761C2088000502D57B487844C3
:1012500002E07A487844193808AA302302F80A30A4
:10126000037C0AF10101002E0AF1020A53546A4676
:1012700002DC4FF0300101E04FF031014FF0010886
:101280008DF8001002D0A6F2FF3603E059EA4701BC
:1012900000D06B4E002D02DC2178090704D54FF0F9
:1012A00002082E218DF80110C44600210BE0C7F37F
:1012B00003433F01C35C491C6D1E02F80830052939
:1012C00008F1010801DA002DF1DC00210CE000EB4F
:1012D0001973491C1B786D1E082902F808304FEA63
:1012E000091908F1010801DA002DF0DC21688B06EC
:1012F00002D516E0A8F10108E04505DD02EB080380
:1013000013F8013C302BF5D0B8F1000F09DD02EBEA
:10131000080313F8013C2E2B03D1090701D4A8F1CF
:101320000108002D05DD3E2102F808106D1E08F1B0
:101330000108407C002E02F8080008F1010804DAD8
:101340002D20764202F8080002E02B2002F8080067
:101350000A214FF47A70864208F101080BDB96FBF4
:10136000F0F3303302F8083096FBF0F308F101088F
:1013700000FB136601E0642E0CDB642096FBF0F3A7
:10138000303302F8083096FBF0F308F1010800FB57
:10139000136601E00A2E06DB96FBF1F0303002F80E
:1013A000080008F1010896FBF1F001FB10603030F5
:1013B00002F80800A16908F1010808EB050202EB38
:1013C0000A00081AA0612078C00602D42046FFF760
:1013D0004EF9216A08AE01EB0A00206204E0D4E96C
:1013E000012116F8010B9047BAF1010AF7D22078D3
:1013F000C00602D52046FFF73AF96E4609E016F816
:10140000010B3E280FD0D4E901219047206A401CEF
:101410002062B8F10108F2D22046FFF73EF909B088
:101420000320BDE8F08F206A2844206203E0D4E95D
:101430000121302090476D1EEBD3F8E73A9700006A
:1014400002FCFFFF10B5436913B1AFF3008001E068
:10145000FFF746F9012010BD127800F124010A704F
:1014600000224A700122EDE711684FF0FF32E9E7F0
:1014700010B5436913B1AFF3008001E0FFF7D0F975
:10148000012010BD128800F1240182840022C28450
:101490000122EDE711684FF0FF32E9E770B516461B
:1014A0000C46054600F044F8036893F80101012852
:1014B00006D0FF2C0FD8185D68B101202C7070BDCC
:1014C000D3F807013246214603F2071303442846A6
:1014D000BDE8704018474FF0FF3070BD00487047BE
:1014E000E04000207546FFF7F9FFAE46050069466B
:1014F000534620F00700854618B020B5FEF714FFCC
:10150000BDE820404FF000064FF000074FF0000804
:101510004FF0000B21F00701AC46ACE8C009ACE885
:10152000C009ACE8C009ACE8C0098D4670470000AE
:1015300010B500F005F8001D10BD00BFC18A000005
:1015400000487047004100202DE9F0411F46044645
:1015500003260168072A01F4006004DB08B116A520
:1015600005E016A503E008B115A500E015A521F0DA
:1015700010002060A069C01EA0610FB1401EA061D4
:101580002046FFF774F84FB1D4E90121384690475F
:10159000206A401C2062C01C206206E0206AFAE734
:1015A000D4E9012115F8010B9047761EF8D22046A8
:1015B000FFF773F8BDE8F0814E414E006E616E009A
:1015C000494E4600696E66002DE9F0478146164691
:1015D0008AB0354878440DC88DE80D00324878440B
:1015E000801C03AC0DC884E80D0041F69B30084414
:1015F000372190FBF1F290FBF1F5A5F1800501FB9D
:1016000012041B3C02D56442012000E00020DFF8F8
:1016100098A080460027FA44AAF1BE0A0EE0E0072F
:101620000AD03246684607EB470101230AEB8101E5
:1016300000F0D6FA8DE8070064107F1C002CEED174
:10164000194F7F44AE3F19E0E80715D007EB0410AF
:101650000DF1180A90E80E008AE80E00C068F0420A
:1016600001D1981908903246012306A903A800F079
:10167000B7FA03AB83E807006D10641C002DE3D1BB
:101680004FF0010332466946B8F1000F03A802D0BB
:1016900000F091FA01E000F0A3FAC9E90001C9F8ED
:1016A00008200AB0BDE8F0874494000010B5044655
:1016B000AFF300802046BDE81040FEF7D4BD5FEADE
:1016C000400C08BF91F0000F4FEA8C234FEAC12273
:1016D00043EA51514FEA1C5018BF00F5F0404FEA61
:1016E000300018BF41F000415FEA6C5C00F02980D7
:1016F000BCF1FF3F08BF40F080407047130C06BFAD
:1017000012044FF0100C4FF0000C130E04BF120225
:101710000CF1080C130F04BF12010CF1040C930F11
:1017200004BF92000CF1020CD30F04BF52000CF165
:10173000010C11464FF00002A0F11F00A0EB0C00BD
:10174000704711F0004F08BF704731F000413FF47F
:10175000D5AF0B0C06BF09044FF0100C4FF0000C76
:101760000B0E04BF09020CF1080C0B0F04BF09019A
:101770000CF1040C8B0F04BF89000CF1020CCB0F91
:1017800004BF49000CF1010CCCF12003A0EB0C00CC
:1017900022FA03F302FA0CF241EA030100F101001C
:1017A000704720F07F4C80EA030023F07F47ACEBCA
:1017B000070303F57C5300F0004003F1FF032DE91C
:1017C00080494FEA154B09B44FEA144325EA0B4E02
:1017D00024EA03480FF2042606EB132749083E7853
:1017E0005FEA320203FB0667C7F5000707FB06F650
:1017F0004FEA54374FEAD64606F1020607FB066C5D
:10180000CCF1005C4FEA1C472CEA074C07FB06F4BE
:101810000CFB06F504EB15464FEA961634BF002084
:101820004FF000404FEAD13706FB07FC4FEA1C4C53
:101830000CFB0BF7D21B03FB0CF761EB07010CFB56
:101840000EF7B0EB074072EB17420CFB08F734BF02
:10185000A2EB0742B2EB074261EB17414FEA0C449F
:101860004FEA910706FB07FC4FEA1C4C0CFB0BF7F9
:10187000B0EBC74072EB573203FB0CF734BFA2EB5F
:10188000C742B2EBC74261EB57310CFB0EF7B0EB2E
:10189000C70072EB57720CFB08F734BFA2EBC7020C
:1018A000B2EBC70261EB5771039F4FEA816141EAD6
:1018B000921104EBCC044FEAD1374FEA826206FB67
:1018C00007FC42EA90124FEA80604FEA1C4C0CFB86
:1018D0000BF7D21B03FB0CF761EB07010CFB0EF7B8
:1018E000B0EB074072EB17420CFB08F734BFA2EBDA
:1018F0000742B2EB074261EB17414FEA8C554FEAC2
:10190000910704EB9C2406FB07FC4FEA1C4C0CFBE4
:101910000BF7B0EBC74072EB573203FB0CF734BF49
:10192000A2EBC742B2EBC74261EB57310CFB0EF79B
:10193000B0EBC70072EB57720CFB08F734BFA2EB99
:10194000C702B2EBC70261EB577115EB4C254FEAAA
:10195000816141EA92114FEA82624FEAD13742EA4D
:10196000901206FB07FC44F100044FEA80604FEA46
:101970001C4C0CFB0BF7D21B03FB0CF761EB0701B4
:101980000CFB0EF7B0EB074072EB17420CFB08F7AD
:1019900034BFA2EB0742B2EB074261EB174115EBF4
:1019A0001C154FEA813141EA92414FEA823242EA04
:1019B00090424FEA80304FEA0C7644F1000448EA46
:1019C00003434EEA0B484FF0000EB2EB080C71EBEC
:1019D000030724BF624639464EEB0E0E4FF0000B54
:1019E0000018524149414BEB0B0BB2EB080C71EB69
:1019F00003077BF1000B24BF624639464EEB0E0E07
:101A00004FF0000B0018524149414BEB0B0BB2EB6E
:101A1000080C71EB03077BF1000B24BF62463946CB
:101A20004EEB0E0E51EA020718BF46F0010616EB08
:101A30000E7655F1000254F1000103D5BDE889018D
:101A4000BDE80088BDE88901BDE80048B6195241EB
:101A500041EB0101A3F10103704780807F7E7D7C13
:101A60007B7A7978777676757473727171706F6E30
:101A70006E6D6C6C6B6A6A696868676666656464DB
:101A8000636362616160605F5F5E5E5D5D5C5C5B65
:101A90005B5A5A59595858575756565555555454D4
:101AA000535352525251515050504F4F4F4E4E4D32
:101AB0004D4D4C4C4C4B4B4B4A4A4A49494948487E
:101AC00048474747474646464545454444444443BE
:101AD00043434342424242414141002B9C4630D461
:101AE00077002BD01CB54FEA370703B44FF0100036
:101AF0004FF01001BAF1000F06D0BCF1000FDCBFAF
:101B000040F0080040F008014FF000000FBCBDE8B5
:101B100010400BF1010BBBF1010F08BF5FEA170783
:101B200022BF12F1010211F101014FF0004143F116
:101B3000000300F0004043EA00007047F9D3570863
:101B4000D0E746EA064613F1400F4FEA16461FDD7E
:101B500013F1200FDFBF16430A46002120335B42FA
:101B6000BED0C3F1200746EA064602FA07F74FEA5D
:101B7000164646EA0706C3F1200722FA03F201FAE5
:101B800007F721FA03F14FF0000342EA0702A7E743
:101B900046EA020646EA06464FEA164646EA0106C5
:101BA000BCBF46EA0646360C4FF000034FF0000279
:101BB0004FF0000194E72DE9804C9A46934670B4AB
:101BC00091E8380007C831EA400C48BF34EA430CBA
:101BD00003D5FFF7E6FDFFF780FFF0BCBDE8008C02
:101BE0002DE9804C9A46934670B491E8380007C8B6
:101BF00010F0804F08BF13F0804F03D100F005F8BC
:101C0000FFF76BFFF0BCBDE8008C20F07F4780EA57
:101C1000030023F07F4C07EB0C03A3F57C5300F08B
:101C20000040A3F1FE0392F0000F00F0B38095F0A6
:101C3000000F00F077802DE901494FEA11404FEA8B
:101C4000144621EA004800FB06FC24EA064708FB8C
:101C500006F607FB08F800FB07F718EB06484CEB05
:101C6000164C4FEA124B18EB07484FEA15464CEB5F
:101C7000174022EA0B4E0BFB06FC25EA06470EFB3B
:101C800006F607FB0EFE0BFB07F71EEB064E4CEBB2
:101C9000164C4FF000061EEB074E4CEB174B18EBA3
:101CA0000B0840F1000018EB0E0B58EB000840F158
:101CB00000008F1A4FF000013CBFC943661B14BFE0
:101CC000B5EB040C00213CBFC943F61B4FEA174497
:101CD0004EEA8E0E27EA04454FEA1C4704FB0762D2
:101CE0002CEA074C05FB07F70CFB05F604FB0CFC84
:101CF00016EB074642EB174216EB0C4642EB1C4232
:101D00001BEB060658EB0202414146EA9E0601D54E
:101D1000BDE80189B619524141EB0101A3F101036C
:101D2000BDE801894FEA14454FEA114724EA054608
:101D300021EA074C05FB07F406FB07F70CFB06F14D
:101D400005FB0CFC11EB074144EB17444FEA12472B
:101D500011EB0C4144EB1C4422EA074C05FB07F253
:101D600006FB07F70CFB06F605FB0CFC16EB07461B
:101D700042EB174216EB0C4642EB1C456A1854F135
:101D8000000148BF7047B619524141EB0101A3F170
:101D90000103704795F0000F37D04FEA11424FEA28
:101DA000144721EA024624EA074C02FB07F106FB2E
:101DB00007F70CFB06F402FB0CFC14EB074441EBA9
:101DC00017414FEA154714EB0C4441EB1C4125EA3F
:101DD000074C02FB07F506FB07F70CFB06F602FBB8
:101DE0000CFC16EB074645EB174516EB0C4645EB8E
:101DF0001C42121951F1000148BF7047B6195241F7
:101E000041EB0101A3F1010370474FEA14454FEA8A
:101E1000114724EA054621EA074C05FB07F106FBBA
:101E200007F70CFB06F24FF0000605FB0CFC12EB6B
:101E3000074241EB174112EB0C4251EB1C4148BFEA
:101E40007047921841EB0101A3F1010370470000B4
:101E5000014801F0CCBA00006C01002070B50446C6
:101E600000688168C943C90717D1816821F0010161
:101E7000816001F0C9FF05460AE000BF01F0C4FF20
:101E8000401B022804D920688068C043C00706D0E0
:101E900020688068C043C007F0D0002070BDA06AF1
:101EA00040F01000A062E06A40F00100E062012012
:101EB00070BD10B50146406A826A12F0500F05D01D
:101EC000006A026BBDE8104008461047816A41F481
:101ED0000071816201688968C1F3424107290CD110
:101EE000017B51B9816A21F480718162816AC904E0
:101EF00003D4816A41F00101816201F075FA10BDDD
:101F000010B5406A816A41F040018162C16A41F0C6
:101F10000401C16201F06AFA10BD10B5406A01F017
:101F200064FA10BDF8B50026044600960068816882
:101F3000C943C9072DD0816841F00101816016486D
:101F400016490068B0FBF1F000E0401E0090002848
:101F5000FBD101F059FF054616E000BF01F054FF28
:101F6000401B022810D920688068C043C0070BD0EE
:101F7000A06A40F01000A062E06A40F00100E06258
:101F800084F824600120F8BD20688068C043C00741
:101F9000E4D10020F8BD00002C00002040420F00DA
:101FA00010B500F013FE04F045FB05F051F803F006
:101FB0006DFF04F0AFF806F0D5FA04F057FD04F019
:101FC00016F803F0DBFA05F035FABDE8104000F032
:101FD00029B9FEE704F014B9074988420BD1074933
:101FE0008A78002A07D090F84200202803D10020E8
:101FF000487000F053BC704748030020E000002008
:102000003EB5684600F0D2FD684601F056F8010082
:1020100003D013A000F0A6F93EBD07F0C9FA05F001
:1020200029F840B903F026FF28B904F067F810B981
:1020300006F0A6FA28B107F005FF0BA003F0CDFAD1
:102040003EBD00F0F9FE044607F0FCFE0CB121464F
:10205000DFE700F09FFD014610A003F0D9FA3EBD76
:1020600073617665000000005B4346475D20455282
:1020700052207361766520756E736166653A2073D0
:10208000746F7020686561742F6D6F746F722F703C
:10209000756D702F55560D0A000000005B434647D2
:1020A0005D204F4B2073617665207365713D256C13
:1020B000750D0A003EB50546032931D1A8680028F0
:1020C0002ED0017800292BD000240A22C9B2303941
:1020D0000A2925D2CB43B3FBF2F3A34220D304EB6E
:1020E000840301EB430410F8011F0029EED1684678
:1020F00000F05CFD1DA16868FEF76AFA90B11EA1B0
:102100006868FEF765FA78B11FA16868FEF760FAA3
:1021100050B121A16868FEF75BFA38B121A009E04F
:1021200027A007E000940AE0019408E0B4F5803F9E
:1021300003D32BA003F051FA3EBDADF8084068462A
:1021400000F0BBFF010004D1684600F0B9FC0100BB
:1021500003D02BA000F006F93EBD00F061FD034660
:10216000224628A0696803F053FA3EBD7761746582
:10217000725F306C5F687A0077617465725F3132CC
:102180006C5F687A0000000077617465725F667545
:102190006C6C5F687A00000077617465725F6D61D6
:1021A000785F6C005B4346475D2045525220736563
:1021B0007420756E6B6E6F776E5F6B65790D0A00BC
:1021C0005B4346475D204552522073657420737906
:1021D0006E7461782F76616C75650D0A00000000E1
:1021E0005B4346475D204552522073657420696EFB
:1021F00076616C69645F76616C75650D0A0000003C
:10220000736574005B4346475D204F4B20736574D4
:102210002025733D256C752064697274793D2575A0
:102220000D0A00000A4810B50021C180018101702B
:1022300041704181C17001210171817000F02EFB5C
:10224000002804D0BDE8104002A003F0C6B910BDBC
:10225000E00000205B4346475D20455252207265F6
:1022600063656976655F696E69740D0A0000000038
:102270000148007970470000E0000020401C80B257
:10228000FF2800D9002070472DE9F04186B0804634
:1022900003A800F08BFC00F0CFFC46F2207646F25B
:1022A000DA1708B11BA40AE00398B04206D10498DB
:1022B000B84203D1BDF814000C2829D017A4DDE9D9
:1022C0000312BDF81430164803F0A2F904F0F2F935
:1022D000054604F08DF901462A4612A003F098F94C
:1022E00000F058FC054600F09BFC02460C200096CE
:1022F000CDE901702B462146154803F089F9B8F164
:10230000000F02D0134803F068F906B0BDE8F08171
:1023100011A4D4E7666C61736800000072616D00FF
:1023200074AA00085B4346475D206D656173757252
:10233000652077617465723D256C75487A207365F8
:102340006E736F725F6F6B3D25750D0A00000000A4
:10235000C0AA000860AB000864656661756C7473A0
:102360000000000010B50446084600F0B3FA02462B
:102370000CB1214600E003A1BDE8104004A003F029
:1023800047B900006F7065726174696F6E0000007C
:102390005B4346475D204552522025732025730D2F
:1023A0000A00000070B5154C134B0025E2786189D6
:1023B0000D280AD00A2808D0002A12D1A0F1200244
:1023C0005F2A0FD36581012010E01AB1104600F09A
:1023D000DFF904E019B15D54074800F011F8658198
:1023E000E57070BD5F2903D365810220E07070BD88
:1023F0005854491C618170BDA03B0020E0000020C2
:1024000070B58AB0002404258DF8204004AE08ABD6
:10241000002852D0002114E0401C0278202AFBD072
:1024200012F0FF0F10D0A94247D246F82100491CF4
:10243000C9B200E0401C027832B1202AFAD100F87B
:10244000014B0278002AE8D119709DF8200001267E
:10245000002832D04AA10498FEF7BAF84A4D002865
:102460002DD04AA10498FEF7B3F8002830D049A136
:102470000498FEF7ADF8002835D047A10498FEF780
:10248000A7F8002835D046A10498FEF7A1F8002847
:1024900038D046A10498FEF79BF8002846D045A105
:1024A0000498FEF795F8002854D043A10498FEF74D
:1024B0008FF8002859D042A054E04BA052E09DF87C
:1024C0002000012801D04DA04CE02C71012006E035
:1024D0009DF82000012801D04FA043E00020FFF725
:1024E000D3FE0AB070BD9DF8201004A8FFF7E2FDEE
:1024F000F7E79DF82000012801D04DA032E0FFF75A
:102500007FFDEEE79DF82000012801D04EA029E0D4
:1025100000F0CCFB684600F049FB684600F0CDFDBA
:10252000010001D04FA00EE051A01BE09DF820005B
:10253000012801D058A015E000F038FC010005D0BA
:10254000072905D05BA0FFF70DFFCAE75BA009E0F4
:1025500062A007E09DF82000012801D068A001E0FA
:102560002E716DA003F039F8BBE79DF8200001281B
:1025700001D071A0F6E7764803F02FF875A0F1E7D7
:10258000636F6E6669670000E000002073686F7714
:102590000000000073657400736176650000000040
:1025A00064656661756C74730000000072656C6F21
:1025B000616400006C6F670068656C70000000006B
:1025C0005B4346475D2045525220756E6B6E6F77B8
:1025D0006E20636F6D6D616E643B20747970652051
:1025E00068656C700D0A00005B4346475D204552EC
:1025F000522073796E7461780D0A00005B43464780
:102600005D2045525220636F6E6669672073796E54
:102610007461780D0A0000005B4346475D20455217
:10262000522073686F772073796E7461780D0A0099
:102630005B4346475D2045525220736176652073A7
:10264000796E7461780D0A005B4346475D20455200
:10265000522064656661756C74732073796E746161
:10266000780D0A0064656661756C74730000000083
:102670005B4346475D204F4B2064656661756C7413
:10268000732061637469766520286E6F74207361AE
:10269000766564290D0A00005B4346475D2045527C
:1026A000522072656C6F61642073796E7461780D6D
:1026B0000A00000072656C6F616400005B4346476E
:1026C0005D204F4B2072656C6F616420736F757273
:1026D00063653D666C6173680D0A00005B434647A5
:1026E0005D204F4B2072656C6F616420736F757253
:1026F00063653D64656661756C74730D0A00000066
:102700005B4346475D20455252206C6F67207379CA
:102710006E7461780D0A00005B4346475D204F4BA5
:1027200020706572696F646963206C6F6720656EE5
:1027300061626C65640D0A005B4346475D2045524B
:10274000522068656C702073796E7461780D0A0090
:1027500014AB00085B4346475D20736176657C647B
:10276000656661756C74737C72656C6F61647C6C9A
:102770006F677C68656C703B20616C6961733A209F
:1027800077617465725F66756C6C5F687A0D0A00BC
:10279000012807D0022807D0032807D104A000BFD2
:1027A00002F01BBF0CA0FBE715A0F9E77047000083
:1027B0005B4346475D204552522072785F6F7665D5
:1027C00072666C6F77206C696E655F6469736361B4
:1027D000726465640D0A00005B4346475D20455204
:1027E00052206E6F6E5F61736369692F636F6E74E1
:1027F000726F6C5F6368617261637465720D0A0069
:102800005B4346475D20455252206C696E655F749C
:102810006F6F5F6C6F6E67206D61783D39350D0AA3
:10282000000000002DE9F0470E46194988422CD1DE
:10283000184CA078002828D0002060704FF00109C3
:10284000402E04D9402684F80090002501E00025A0
:1028500015E01148E78810F805803846FFF70EFDAF
:102860002189884202D184F8009006E00A4A403269
:1028700002F80780BFF35F8FE0806D1CADB2B542F8
:10288000E7D3BDE8F04700F009B8BDE8F0870000E5
:1028900048030020E0000020603A00200A4810B5FC
:1028A00090F84200094C202803D0002060700220DC
:1028B00010BD40220649044802F003FB10B100217C
:1028C000617010BD0121FBE748030020E0000020FB
:1028D000603A0020092818D2DFE800F00507090B4C
:1028E0000D0F111315000AA070470AA070470EA023
:1028F000704711A0704715A0704719A070471EA01F
:10290000704722A0704725A0704726A0704700009E
:102910006F6B0000696E76616C69645F61726775E8
:102920006D656E7400000000696E76616C69645FAD
:1029300076616C7565000000666C6173685F756E2A
:10294000617661696C61626C65000000666C617340
:10295000685F65726173655F6661696C65640000DC
:10296000666C6173685F70726F6772616D5F6661DC
:10297000696C656400000000666C6173685F766571
:10298000726966795F6661696C6564006465666139
:10299000756C74735F75736564000000627573799C
:1029A00000000000756E6B6E6F776E5F73746174FC
:1029B00075730000084A107800280BD0EFF31081DF
:1029C00072B6107818B100231370D38813810029D0
:1029D00000D162B670470000E00000202DE9F04110
:1029E000174CA078002828D0607830B9154890F8A6
:1029F0004200202801D1FFF751FFFFF7DBFF002144
:102A0000032508B16181E5700F4F88462089E18870
:102A1000884212D0BFF35F8F3E5CBFF35F8FFFF73A
:102A20002DFC20813046FFF7BDFCFFF7C3FF0028D7
:102A3000ECD0A4F80A80E570E8E7BDE8F08100007A
:102A4000E000002048030020A03A0020014800F0E8
:102A500023BF00009C010020014800F01DBF0000C2
:102A6000A0040020014800F017BF0000D40300209C
:102A7000014800F011BF000090030020014800F061
:102A80000BBF00005C040020014800F005BF0000FF
:102A90001804002030B590F840500124AC40C56BBC
:102AA0006C60046863604368102B036803D099600E
:102AB0000068C26030BD9A600068C16030BD704778
:102AC00070B5054600F0F9FA002809D100F006F9C2
:102AD0000E4C0646A07820B1304600F0E9FA0820F6
:102AE00070BD0C2229460A48FDF75EFC40B108483B
:102AF00095E80E0080E80E00002020700120607034
:102B0000304600F0D5FA002070BD0000D80000204B
:102B1000543A002070B54FF0FF320024094D0DE00B
:102B2000035D5A400023D60702D085EA520200E036
:102B300052085B1CDBB2082BF5D3641C8C42EFD32C
:102B4000D04370BD2083B8ED2DE9F04716460F46FF
:102B5000804600F0C3F800250C4C8146B8F1000F08
:102B60000AD14FB10C22394609486660FDF71CFCBA
:102B7000012138B125706170A5704846BDE8F04765
:102B800000F096BA21706570F6E70000D8000020CA
:102B9000543A002010B500F0A1F803494C6800F049
:102BA00087FA204610BD0000D800002010B50400B0
:102BB00009D000F093F8044B0ECB84E80E00BDE87A
:102BC000104000F075BA10BD543A0020F0B5124C18
:102BD000A3B00025A570684600F0C4F90F4F012688
:102BE00068B99DF8580050B11BAB93E8070087E81F
:102BF0000700267065701A98606023B0F0BD20A8A9
:102C000000F077F820AB93E8070087E8070025700D
:102C100066706560F1E70000D8000020543A00209B
:102C200010B500F05BF803494C7800F041FA2046FB
:102C300010BD0000D800002010B500F04FF8034987
:102C40000C7800F035FA204610BD0000D8000020B6
:102C500010B50446C08BA0F525415A3917D10D494E
:102C60002068884213D1A088012810D1E0880C2860
:102C70000DD104F10C0000F020FA40B918212046D3
:102C8000FFF748FFA169814201D1012010BD00205A
:102C900010BD000044434647401A04D0B0F1004F35
:102CA00001D201207047002070470000FEB5684641
:102CB00000F01FF89DE8700000F010F805490022B0
:102CC00081E8700004490A7001224A70BDE8FE40A4
:102CD00000F0EEB9543A0020D800002010B506F0FC
:102CE000C1FF012803D006F063FC012010BD0020C5
:102CF00010BD10B50C2464F30F0146F220720024BD
:102D000046F2DA1364F31F410260C0E9013110BDDD
:102D100070B50C460A46054601460023012000F026
:102D200029FF08B1052070BD2888A04201D00620E7
:102D300070BD002070BD70B58AB00D4606460024F7
:102D400028190088ADF820003019BDF82010FFF7D1
:102D5000DFFF00281ED1A41C1E2CF1D3E98B06F145
:102D60001E00FFF7D5FF002814D16946304600F059
:102D700013F86846FFF76CFF58B10298A9688842BB
:102D800007D10C2205F10C0103A8FDF70DFB00286B
:102D900000D006200AB070BD5FF0000250F822306B
:102DA00041F82230521C082AF8D370472DE9F04729
:102DB000A4B0FFF793FF1E498A782AB100F078F992
:102DC000082024B0BDE8F08701228A468A7000F00E
:102DD0006FF9684600F0C6F8040009D19DF8580064
:102DE00030B1DDE91C81DDE91A67894601250AE079
:102DF00020A8FFF77EFFDDE921810025209F89467D
:102E00002E4604B90724FFF769FF0A4B514683E8B1
:102E100080038AF800504DB100224A7000224E60B3
:102E20008AF8022000F044F92046CAE70122F4E7BC
:102E3000D8000020543A0020F0B5B5B0FFF74EFF9F
:102E400044498A7822B100F033F9082035B0F0BD4A
:102E50004A7882B1404B01258D700ECB22AC84E8BC
:102E60000E0000F025F922A800F027F9040006D092
:102E70000022114668E000F01BF90020E6E701A8F7
:102E800000F070F80400F3D19DF85C0010B11B9EB7
:102E9000761C00E001262EAA2DA901A800F0E2F878
:102EA000202125A8FDF76CFB2C482590ADF8985003
:102EB0000C2022ABADF89A00279693E8070028ABC8
:102EC000002783E80700ADF8B0704AF25A50ADF819
:102ED000B200182125A8FFF71DFE2B9000F08AFEF6
:102EE00028B100F03DFE0324002211462BE01C49CE
:102EF0003420C8602E9CE4B14FF0FF30CDE9325051
:102F000033A92F9731942FA800F0D6FD10B933982C
:102F1000401C01D0042411E000204FF480622158AD
:102F2000491C03D0062400F01BFE0AE0001D90425D
:102F3000F5D325A92D98FFF7FEFE044600F010FEFC
:102F400034B1002132462046FFF7FEFD20467DE7E2
:102F500022A9F7E7D8000020543A0020444346470E
:102F60000020024070B504000AD08021FDF708FB64
:102F70001C480088402805D0802803D0032070BD5D
:102F8000012070BD01252146174800F031F804F1F9
:102F90002C01164800F02CF8217804F1600649B1A4
:102FA00084F85850A068E065202204F10C013046F6
:102FB000FDF78AFA94F82C0088B194F8580020B1F3
:102FC000A16E206CFFF768FE48B184F85850606B22
:102FD000E065202204F138013046FDF775FA002043
:102FE00070BD0000E0F7FF1F00F8000800FC0008BB
:102FF0002DE9F0410C46074688B02C212046FDF70C
:10300000BFFA00264FF0010807EB46155FF00000FD
:1030100055F82010491C1DD069462846FFF7BCFE14
:103020006846FFF715FE78B1207820B161690298F3
:10303000FFF732FE40B184F800802022694604F197
:103040000C00A560FDF740FA761C202EDCD308B0FA
:10305000BDE8F081401C0828DAD360680028F3D16D
:103060006560F1E770B500230B60136090F858308D
:103070000D4C4BB10D4EC56D00F12C03B54207D27E
:1030800005461846344604E0436823B9006B05E062
:103090001D466B680BB10B6070BD406808B10860DD
:1030A00070BD14600C6070BD00F8000800FC0008E2
:1030B000002801D006F0C6BE7047C8B1026849F6C4
:1030C0005903A2F57A71994210D24168B1F57A7F1D
:1030D0000CD349F64043994208D88A4206D9511A7E
:1030E000642903D30089401E142803D302207047AB
:1030F000012070470020704772B6FEE706490020A5
:10310000C8610648016941F004010161016941F0AB
:10311000400101617047000030050020002002409E
:10312000064A0021D16106490A6942F002020A6199
:103130004861086940F04000086170473005002090
:1031400000200240044B0022DA61044A136943F074
:103150000103136101807047300500200020024008
:1031600014480022C168CB06134904D5CA6942F04D
:103170000202CA611022C3685B0705D5CB6943F020
:103180000103CB6142F00402C369DB0707D0CB69BE
:1031900043F00403CB61C16921F00101C161A2F5D3
:1031A0008071013901D0C2607047C16921F001010D
:1031B000C1617047002002403005002070B505460F
:1031C00000F022FE0646114C09E0681C07D025B12C
:1031D00000F01AFE801BA84201D9032070BDE068F0
:1031E000C007F2D1E068800601D52020E060E068E9
:1031F000C00605D4E069C00702D1E068400703D5E6
:10320000FFF7AEFF012070BD002070BD002002401E
:10321000F8B500250446009590F8240001280BD04D
:10322000012084F824002046FEF718FE2046FEF711
:1032300079FE060002D050E00220F8BDA06A20F41A
:10324000885040F00200A062022000F0ADFE254947
:103250000968B1FBF0F0400000E0401E009000283B
:10326000FBD12068816841F00801816000F0CCFD4D
:10327000074608E000F0C8FDC01B0A2803D92068F3
:103280008068000715D4206880680007F2D42068A1
:10329000816841F00401816000F0B6FD074612E04C
:1032A00000F0B2FDC01B0A280DD9206880684007D5
:1032B00009D5A06A20F0020040F01000A06284F856
:1032C00024500120F8BD206880684007E8D4A06A37
:1032D00020F0020040F00100A06284F82450304643
:1032E000F8BD00002C00002070470000F8B5002455
:1032F000009490F824202546012A12D0012280F85B
:1033000024204A681F23072A0DD20668776B521EB5
:1033100002EB820293409F430B6893401F43776305
:1033200019E00220F8BD06680D2A0AD2376BD21FB9
:1033300002EB820293409F430B6893401F43376325
:1033400009E0F76A0D3A02EB820293409F430B6853
:1033500093401F43F7620A68072306680A2A0AD3C4
:10336000F7680A3A02EB420293409F438B6893400E
:103370001F43F76008E0376902EB420293409F4326
:103380008B6893401F4337610A68102A01D0112AC5
:1033900020D1124B02689A4217D193681B0219D4AC
:1033A000936843F4000393600968102912D10C4913
:1033B0000C4A0968B1FBF2F101EB8101490000E020
:1033C000491E00910029FBD104E0816A41F02001EF
:1033D0008162012480F824502046F8BD0024014079
:1033E0002C00002040420F0070477047704770B5B6
:1033F0000446006806684568A90625D5B10723D5A7
:10340000A16AC90603D4A16A41F40071A16281686E
:10341000C1F34241072910D1217B71B9416821F0E4
:1034200020014160A06A20F48070A062A06AC004FC
:1034300003D4A06A40F00100A0622046FFF7D4FF49
:1034400021686FF01200086028062ED570072CD571
:10345000A06AC00603D4A06A40F40050A0622068AD
:103460008168C1F30231072909D04168490515D4A3
:103470008168C1F34241072910D1217B71B94168AC
:1034800021F080014160A06A20F48050A062A06A0F
:10349000C00503D4A06A40F00100A0622046FFF7F7
:1034A00023FF21686FF00C00086068060CD5F00758
:1034B0000AD0A06A40F48030A062204600F094F860
:1034C00021686FF00100086070BD00002DE9F04137
:1034D0004FF0000704003D467ED0A06A002628B9C0
:1034E000E66284F82460204600F080F82046FEF76B
:1034F000B5FCA16AC90600D420B1A06A40F0100052
:10350000A06269E0A16A21F4885141F00201A16240
:103510006268E169237B0A4347EA43010A43A168E1
:103520004FF48077B94209D0012907D05FF000013C
:1035300094F814C0BCF1010F02D00AE03946F7E755
:10354000F3B1A36A43F02003A362E36A43F00103EB
:10355000E3622368D3F804C02CF4694C4CEA010CF4
:10356000C3F804C021688B68DFF870C003EA0C035D
:1035700013438B60A168B9420BD0012909D00CE03C
:10358000DFF85CC0A3690CEB43330B4343F40061E9
:10359000DFE7218A0D05A5F580152168CB6A23F4A4
:1035A00070032B43CB62216889680E4B194091420E
:1035B00008D1E662A16A21F0020141F00101A16295
:1035C000BDE8F081A06A20F0020040F01000A06287
:1035D000E06A40F00100E0620120F1E7FDF7E1FF61
:1035E00000E0FFFFFE0E1FFF7047000070B586B0C1
:1035F000002506460095019502950395006825492A
:10360000884244D12449886940F4007088618869FF
:1036100000F400700490886940F0040088618869B3
:1036200000F004000490886940F00800886188690F
:10363000032400F008000490B120CDE9000469469D
:10364000164800F0EBFA009469461548019400F022
:10365000E5FA154C1348C4E900058020C4E902507E
:1036600040002061800060612020C4E906052046FA
:1036700000F0BCF908B1FFF73FFD346200220621DB
:103680001220666200F05EFC122000F04DFC06B0D5
:1036900070BD0000002401400010024000080140FD
:1036A000000C0140080002409C0100202DE9F04779
:1036B000894604463B4900683B4F0E1D90468842B0
:1036C00001D0B84207D1306810F4702F03D0012523
:1036D0002846BDE8F08794F8240001280CD001208A
:1036E00084F824002046FEF71DFC05004FF0000082
:1036F00004D084F82400EBE70220EAE7A16A40F650
:103700000162914341F48071A1622168B94218D1EC
:10371000326812F4702F14D0A16A41F48011A162B2
:103720003168490505D5A16A21F4005141F4805161
:10373000A162A16AC9040AD5E16A21F00601E16229
:1037400006E0A26A22F48012A2624968E9E7E06218
:1037500084F82400216A15488862216A1448C862E6
:10376000216A1448086321686FF00200086020682D
:10377000816841F480718160216843464A464C313A
:10378000206A00F061F920688168C1F3424107298D
:10379000816803D041F48011816099E741F4A00170
:1037A000FAE700000024014000280140B31E000891
:1037B0001B1F0008011F000810B590F821100022FF
:1037C000022905D00421816380F82020012010BD4A
:1037D00001680B6823F00E030B6001680B6823F08F
:1037E00001030B6090F84030C46B012101FA03F330
:1037F000636080F8211080F82020104610BD000082
:1038000010B590F821100024022903D0042181630F
:1038100001243DE001680A6822F00E020A60016896
:103820000A6822F001020A601A4A0168914201D135
:10383000012121E0174A1432914201D110211BE0ED
:10384000144A2832914201D1891515E0114A3C32BF
:10385000914201D189140FE00E4A5032914202D1B7
:103860004FF4803108E00B4A6432914202D14FF4A8
:10387000801101E04FF08071064A083A5160012141
:1038800080F82110002180F82010416B01B1884799
:10389000204610BD080002402DE9F05FC16B0C68A6
:1038A00001680B68D0F840C0042202FA0CF2494DBE
:1038B000DFF824A1494E4A4FDFF828B1DFF828E1AC
:1038C00022422CD05A072AD50A68920603D40A68E5
:1038D00022F004020A600168A94201D1042219E021
:1038E000514501D1402215E0B14202D14FF480622E
:1038F00010E0B94202D14FF480420BE0594502D1A9
:103900004FF4802206E0714502D14FF4800201E0BD
:103910004FF080622F4908394A60C16A3BE04FF09E
:10392000020808FA0CF818EA040F4FF000094FF0EB
:10393000010235D05FEA837832D50B689B0605D447
:103940000B6823F00A030B6080F821200168A9426C
:1039500001D1022219E0514501D1202215E0B142E6
:1039600002D14FF4007210E0B94202D14FF400527C
:103970000BE0594502D14FF4003206E0714502D107
:103980004FF4001201E04FF00072124908394A600A
:1039900080F82090816A00291AD0BDE8F05F0847BE
:1039A000082505FA0CF5254212D01B0710D50B6827
:1039B00023F00E030B6090F84010C36B02FA01F184
:1039C0005960826380F8212080F82090016BE2E743
:1039D000BDE8F09F080002401C0002403000024099
:1039E00044000240580002406C00024030B528B349
:1039F00008C8134914221944B1FBF2F18900C163CC
:103A000010498163022141771A6843F6F0718A43B5
:103A1000D0E900142143D0E902452C432143046935
:103A200021434469214384692143114319600021E2
:103A30004163012242770177084630BD012030BD45
:103A4000F8FFFDBF0000024070B5044690F820006A
:103A5000002501280CD0012084F8200094F8216072
:103A60000020012E06D084F820000225284670BDD3
:103A7000022070BD022684F82160A06320680668D9
:103A800026F0010606602046FFF704F8E06A0028E9
:103A90002068016802D041F00E0106E021F0040127
:103AA00001602068016841F00A0101602068016836
:103AB00041F001010160D9E72DE9F04705462648AC
:103AC0000F460126017E01290FD001218146017692
:103AD0002868DFF888804CF25034022808D0A246CB
:103AE0002046FFF76BFBA8B131E00220BDE8F0876C
:103AF0002046FFF763FB08BB0120FFF7FFFA2046D3
:103B0000FFF75CFBD8F81010064621F00401C8F856
:103B100010101CE04FF0FF303860AC6811E0204618
:103B2000FFF7FEFA5046FFF749FBD8F810100600E1
:103B300021F00201C8F8101001D03C6007E004F544
:103B40008064D5E9020100EB8120A042E7D8002182
:103B500089F818103046C9E73005002000200240DF
:103B60000348016941F080010161002070470000B5
:103B7000002002402DE9F05F07461C4888460024DB
:103B8000017E15461E46012909D001218146017694
:103B90004CF2503A5046FFF711FB18B122E00220D8
:103BA000BDE8F09F012F02D0022F00D00427D3469A
:103BB000DFF83CA0220128463146FCF7C8FB81B261
:103BC00008EB4400FFF7BEFA5846FFF7F7FADAF8B9
:103BD000102022F00102CAF8102018B9641CE4B2C7
:103BE000BC42E7D3002289F81820D9E7300500202D
:103BF00000200240064900200A69120607D5054A3E
:103C00004A60054A4A600969090600D501207047E3
:103C10000020024023016745AB89EFCD2DE9F84F25
:103C2000DFF8B8910024A9F1040B23460F2709F10E
:103C3000040AABF1040EC9E00125A5402A40AA42BE
:103C40007DD1674ED1F804C0ACEB0608B44532D044
:103C500014DCBCF1030F3AD009DCBCF1000F2AD010
:103C6000BCF1010F1CD0BCF1020F31D11DE0BCF141
:103C7000110F17D0BCF1120F2AD119E0B8F5881F27
:103C800019D006DCB8F5803F15D0B8F5801F1FD1DC
:103C900011E0B8F5001F0ED0B8F5041F18D10AE0E6
:103CA000CB6815E0CB681B1D12E0CB6808330FE032
:103CB000CB680C330CE08B682BB1012B4FF0080361
:103CC00003D0456104E0042302E0056100E0002325
:103CD000FF2A01D8064601E000F104064FEA8405F8
:103CE00001D9A5F12005D6F8008007FA05FC28EADD
:103CF0000C0803FA05F548EA0508C6F800804D6887
:103D0000ED0062D5374DAE6946F00106AE61AD6992
:103D100024F0030605F001050095334D06EB050C74
:103D2000DCF80850A607360F07FA06F825EA08055A
:103D3000DFF8B880404503D14FF0000817E044E0B9
:103D4000DFF8AC80404502D14FF001080FE0DFF80A
:103D5000A480404502D14FF0020808E0DFF89880C7
:103D6000404502D14FF0030801E04FF0040808FA83
:103D700006F848EA0508CCF808804D68D9F80060D4
:103D8000ED024D4601D5164300E096432E604D6886
:103D9000DAF80060AD02554601D5164300E09643BF
:103DA0002E604D68DBF80060AD035D4601D516431B
:103DB00000E096432E604D68DEF80060ED03754626
:103DC00001D5164300E096432E60641C0D682A4618
:103DD000E5407FF431AFBDE8F88F000008040140F2
:103DE00000001110001002400000014000080140D6
:103DF000000C014000100140001401400AB10161B3
:103E000070470904FBE70000014880687047000024
:103E100020000020024881680278114481607047C8
:103E200020000020074810B5016841F01001016032
:103E3000032000F0A7F80F2000F006F800F050F87B
:103E4000002010BD0020024030B50546204887B054
:103E5000C16941F00101C161C06906A900F001001A
:103E6000009001A800F0FEF90498B8B100F01AFA29
:103E7000400018494FF08042B0FBF1F11648491E4E
:103E80000260416040F2E7320021C0E90321816015
:103E9000816100F03DFC040003D015E000F002FA5F
:103EA000E7E70D4800F062FC04000DD11C2000F093
:103EB0003BF8102D07D2002229461C2000F042F8C2
:103EC0000648056000E0012407B0204630BD000030
:103ED0000010024040420F00E404002024000020B3
:103EE0000F4808B5816941F001018161816901F0E4
:103EF00001010091C16941F08051C161C069002296
:103F000000F0805000900F21901E00F01BF8054833
:103F1000416821F0E06141F00071416008BD00009E
:103F20000010024000000140002809DB00F01F02E1
:103F3000012191404009800000F1E020C0F800110B
:103F400070470000F0B40E4B1B680C46C3F302230D
:103F5000C3F10705042D00D90425191D072901D235
:103F6000002300E0DB1E012606FA05F1491E214070
:103F700099409E40761E16403143F0BC04F059BB78
:103F80000CED00E0064900F0070208684FF6FF0359
:103F9000184040EA0220034A1043086070470000BE
:103FA0000CED00E00000FA0510B501460020234C9E
:103FB000012922D0022939D010291DD16168226837
:103FC000D20119D51E48C1F38342C903805C0AD5CA
:103FD00061681B4AC1F34041921E515C194AB2FB11
:103FE000F1F1484301E0184948436168490203D4AC
:103FF00040000321B0FBF1F010BD226AC2F30121A1
:10400000012903D1920701D5C80310BD022905D1AA
:10401000626A920702D549F6404010BD0329FCD1DF
:1040200021688903F9D54FF2244010BD00F04AF908
:104030006168C1F38131491C4900DBE7001002408F
:10404000D0A8000800127A0000093D002DE9F843CD
:1040500005460078354CC00754D0E0690026C00002
:1040600008D4E06940F08050E061E069012600F08A
:10407000805000902E480168C90512D4016880461E
:1040800041F480710160FFF7BFFE074605E000BF05
:10409000FFF7BAFEC01B642823D8D8F80000C0057B
:1040A000F6D5206A10F4407021D0A98801F440713F
:1040B00081421CD0206A1F49012220F440700A600E
:1040C00000220A602062C00711D0FFF79DFE07465C
:1040D00041F2883808E000BFFFF796FEC11B41455A
:1040E00002D90320BDE8F883206A8007F4D5206A4E
:1040F000696820F44070084320621EB1E06920F036
:104100008050E0612878800705D56068A96820F4B0
:104110004040084360602878C00605D56068E968BB
:1041200020F48000084360600020DBE700100240BC
:1041300000700040400442422DE9F0470F46050060
:1041400061D0434E306800F00700B84209D23068B1
:1041500020F0070038433060306800F00700B842B4
:1041600051D128683B4C810712D5400703D56068C0
:1041700040F4E06060602878000703D5606840F490
:10418000605060606068A96820F0F00008436060DB
:104190002878C00728D06868012810D02168022834
:1041A00010D0890700292EDA616821F0030101434C
:1041B0006160FFF729FE804641F288390DE02168F1
:1041C0008903EFE78901EDE7FFF71EFEA0EB080189
:1041D000494502D90320BDE8F0876068696800F0AE
:1041E0000C00B0EB810FEFD1306800F00700B8424F
:1041F0000BD9306820F0070038433060306800F099
:104200000700B84201D00120E5E72878400705D52E
:104210006068E96820F4E06008436060287800077F
:1042200006D56068296920F4605040EAC1006060EA
:1042300000F058F86168084AC1F30311515CC840A6
:104240000649086006480068FFF7FEFD0020C2E747
:104250000020024000100240E0A800082C000020CE
:10426000240000200F2202600C4A536803F003036D
:104270004360536803F0F0038360536803F4E06322
:10428000C36052684FF4E06303EAD202026104485B
:10429000006800F00700086070470000001002404E
:1042A000002002400448054900684968044AC1F3F7
:1042B0000221515CC84070472C00002000100240D1
:1042C000F0A800080448054900684968044AC1F399
:1042D000C221515CC84070472C00002000100240F1
:1042E000F0A800080E4A51680E4801F00C03042B98
:1042F00011D0082B0FD10C48C1F38343C903C05C14
:104300000AD55168084AC1F34041921E515C054AE2
:104310005043B0FBF1F07047044948437047000038
:104320000010024000127A00BEA8000800093D00FB
:104330002DE9F84F040070D02078C04DC00749D057
:104340006868C0F38100012807D06868C0F3810065
:10435000022809D16868C00306D52868800339D5CA
:1043600060680028E7D035E06068B0F5803F0BD08A
:1043700010B1B0F5A02F11D0286820F4803028604B
:10438000286820F4802002E0286840F4803028600B
:10439000606890B1FFF738FD06460AE0286840F4EF
:1043A00080202860F0E700BFFFF72EFD801B642807
:1043B00073D828688003F7D50CE0FFF725FD064683
:1043C00005E000BFFFF720FD801B6428F0D82868B7
:1043D0008003F7D420789A4E80074FF001094FF000
:1043E000000839D5686810F00C0F07D06868C0F372
:1043F0008100022809D16868C00306D428688007B4
:1044000014D52069012808D110E02069B0B1C6F8A0
:104410000090FFF7F9FC074605E00AE1FFF7F4FC1E
:10442000C01B0228C4D828688007F7D528686169AE
:1044300020F0F80040EAC10028600DE0C6F80080D6
:10444000FFF7E2FC074604E0FFF7DEFCC01B022892
:1044500023D828688007F7D4207800072CD579481E
:10446000A169D9B1C0F80090FFF7CEFC074604E07F
:10447000FFF7CAFCC01B02280FD8686A8007F7D56F
:1044800071484FF4FA510068B0FBF1F0009000BFA2
:104490000098411E0091FAD20EE080E0C0F8008042
:1044A000FFF7B2FC074604E0FFF7AEFCC01B022892
:1044B00075D8686A8007F7D42078400760D5E86926
:1044C0000027C00008D4E86940F08050E861E8693E
:1044D000012700F0805000905C480168C90513D4A2
:1044E0000168834641F480710160FFF78DFC8246CC
:1044F00006E000BFFFF788FCA0EB0A0064284ED856
:10450000DBF80000C005F5D5E06801280AD008B145
:10451000052813D0286A20F001002862286A20F0BC
:10452000040002E0286A40F001002862E06841F2DD
:10453000883B98B1FFF768FC82460BE0286A40F0A0
:1045400004002862EEE700BFFFF75EFCA0EB0A0163
:1045500059455AD8286A8007F6D50CE0FFF754FC75
:10456000824605E0FFF750FCA0EB0A0159454CD804
:10457000286A8007F6D41FB1E86920F08050E8610E
:10458000E06988B36968C1F38101022944D0022837
:10459000C6F8608004D0FFF737FC044638E034E00A
:1045A000FFF732FC074604E0FFF72EFCC01B022891
:1045B0002BD828688001F7D4206AB0F5803F05D158
:1045C0006868A16820F4003008436860D4E90801F5
:1045D0000843696821F4741108436860C6F8609064
:1045E000FFF712FC044606E025E000BFFFF70CFCD5
:1045F000001B022809D828688001F7D51BE000BFFE
:10460000FFF702FC001B022802D90320BDE8F88F47
:1046100028688001F4D40EE00128F7D06868226A87
:1046200000F48031914204D1616A00F47010884234
:1046300001D00120EAE70020E8E700000010024076
:1046400000004242800442422C00002000700040E2
:104650007047704710B590F83C20012A22D0012203
:1046600080F83C20CA688C6822F4407222434C686F
:1046700022F4806222430C6822F4006222430C6917
:1046800022F4805222434C6922F400522243C96929
:10469000002322F480420A4301684A6480F83C30D7
:1046A000002010BD022010BD70B590F83C20012AFA
:1046B00026D0012480F83C40022280F83D20036887
:1046C0005A689D6822F070060A6832435A600D4BA2
:1046D00002689A4208D0B2F1804F05D00A4B9A4244
:1046E00002D00A4B9A4204D1496825F0800319434D
:1046F000916080F83D40002180F83C10084670BD74
:10470000022070BD002C0140000400400008004061
:1047100010B5040003D094F83D0010B107E001206B
:1047200010BD002084F83C00204600F01EF8022056
:1047300084F83D00211D206802F08AFA012084F8E7
:10474000460084F83E0084F83F0084F8400084F876
:10475000410084F8420084F8430084F8440084F85F
:10476000450084F83D00002010BD704790F83D10D2
:10477000012901D001207047022180F83D10016815
:10478000CA6842F00102CA6000680B49884208D03A
:10479000B0F1804F05D00949884202D008498842CB
:1047A00004D1816801F00701062903D0016841F0B6
:1047B0000101016000207047002C0140000400400E
:1047C00000080040074910B5884209D1007F012840
:1047D00006D1054C6068401C6060FFF715FBA060C7
:1047E00010BD000028020020C80000202DE9F04183
:1047F000054690F83C0000260C46012810D0012008
:1048000085F83C0072B1042A1CD0082A2CD00C2A4E
:1048100050D00126002085F83C003046BDE8F081EC
:104820000220FBE7D4E90012E368286802F0FCFAF2
:104830002868816921F00C01816128688169A2687A
:1048400011430FE0D4E90012E368286802F018FB76
:104850002868816921F44061816128688169A268C2
:1048600041EA02218161D5E72868D4E9002C277B41
:10487000036A016A21F480710162C16923F4007343
:1048800021F0030141EA0C0121F0F00C39074FF44B
:1048900000774CEA116107EA02221A43C161026201
:1048A0002868C16921F00C01C1612868C169A2684A
:1048B00011432BE02868D4E90021E768036AD0F8A7
:1048C00020C02CF4805CC0F820C0D0F81CC023F4B9
:1048D00000532CF4407C4CEA012121F4704C4FF63B
:1048E000FF7101EA07314FF4005741EA0C0107EA72
:1048F00002321A43C16102622868C16921F4406131
:10490000C1612868C169A26841EA0221C16181E7E9
:1049100010B5040003D094F83D0010B107E0012069
:1049200010BD002084F83C00204600F01FF8022053
:1049300084F83D00211D206802F08AF9012084F8E6
:10494000460084F83E0084F83F0084F8400084F874
:10495000410084F8420084F8430084F8440084F85D
:10496000450084F83D00002010BD000000B585B072
:104970000021009101910291039100681149884240
:104980001ED11148C16941F00201C161C16901F044
:1049900002010491816941F00401816180696946E5
:1049A00000F004000490402000900848FFF736F91A
:1049B000002206211D20FFF7C5FA1D20FFF7B4FADB
:1049C00005B000BD00040040001002400008014096
:1049D00030B50446002551B104290DD0082910D066
:1049E00094F8410094F84520012811D10EE094F884
:1049F0003E0094F84220F7E794F83F0094F84320F3
:104A0000F2E794F8400094F84420EDE7012A01D041
:104A1000012030BD022059B1042912D0082919D033
:104A200084F8410084F845000C2938D0012534E091
:104A300084F83E0084F842002068C26842F0020216
:104A400010E084F83F0084F843002068C26842F018
:104A5000040207E084F8400084F844002068C2683B
:104A600042F00802C2600122206802F02DF90E49CE
:104A70002068884208D0B0F1804F05D00B498842A9
:104A800002D00B49884204D1816801F00701062950
:104A900003D0016841F001010160284630BD206863
:104AA000C26842F01002DDE7002C01400004004023
:104AB000000800402DE9F04104460068C668056919
:104AC0004FF00007A90713D5B10711D5F91E0161F1
:104AD00001202077206880698007204602D0FFF7F8
:104AE00071FE04E000F0BCF8204600F06DF9277775
:104AF000680716D5700714D521686FF004000861A7
:104B0000022020772068806910F4407F204602D080
:104B1000FFF758FE04E000F0A3F8204600F054F937
:104B20002777280715D5300713D521686FF00800BF
:104B30000861042020772068C0698007204602D0E1
:104B4000FFF740FE04E000F08BF8204600F03CF94F
:104B50002777E80616D5F00614D521686FF0100007
:104B60000861082020772068C06910F4407F204643
:104B700002D0FFF727FE04E000F072F8204600F0B4
:104B800023F92777E80708D0F00706D021686FF0EF
:104B900001000861204600F067F9280608D53006B4
:104BA00006D521686FF0800008612046FFF750FDB0
:104BB000680608D5700606D521686FF040000861C8
:104BC000204600F058F9A8060AD5B00608D5216895
:104BD0006FF0200008612046BDE8F041FFF739BDC5
:104BE000BDE8F08100B585B00021009101910291EE
:104BF0000391164B0268164802219A420FD182692E
:104C000042F0040282618069039100F00400049084
:104C10004FF41060CDE9000169460E4811E00E4BDB
:104C20009A4210D1826942F0080282618069039140
:104C300000F0080004904FF47070CDE9000169465F
:104C40000648FEF7EBFF05B000BD0000002C014058
:104C5000001002400008014000080040000C014024
:104C6000704770B5044690F83C0000260D460128B8
:104C70000FD0012084F83C006AB1042A1DD0082A14
:104C80002FD00C2A3FD00126002084F83C0030466B
:104C900070BD022070BD206802F024F82068816990
:104CA00041F0080181612068816921F0040181617E
:104CB000206881692A69114311E0206802F03AF8FE
:104CC0002068816941F4006181612068816921F473
:104CD00080618161206881692A6941EA02218161DC
:104CE000D2E7206802F052F82068C16941F008015B
:104CF000C1612068C16921F00401C1612068C169F6
:104D00002A69114311E0206802F06CF82068C1693B
:104D100041F40061C1612068C16921F48061C16111
:104D20002068C1692A6941EA0221C161ACE710B576
:104D3000040003D094F83D0010B107E0012010BD3D
:104D4000002084F83C00204600F01EF8022084F881
:104D50003D00211D206801F07BFF012084F8460002
:104D600084F83E0084F83F0084F8400084F8410055
:104D700084F8420084F8430084F8440084F8450035
:104D800084F83D00002010BD08B50C4A01680C48AD
:104D9000914207D1816941F400618161806900F429
:104DA000006009E0074A914207D1C16941F004015E
:104DB000C161C06900F00400009008BD002C0140F2
:104DC00000100240000800407047000010B5044683
:104DD000022249B104290ED0082913D094F84100C9
:104DE000012816D0012010BD94F83E000128F9D109
:104DF00084F83E200FE094F83F000128F2D184F8B7
:104E00003F2008E094F840000128EBD184F84020CE
:104E100001E084F841200122206801F055FF0F498C
:104E20002068884203D1426C42F400424264206808
:104E3000884208D0B0F1804F05D00949884202D09D
:104E40000849884204D1816801F00701062903D08E
:104E5000016841F001010160002010BD002C0140FB
:104E600000040040000800400068B0F1804F01D10C
:104E7000FEF7D0BF7047704738B5044690F842003F
:104E8000202801D0022038BD51B14AB10120206351
:104E900000206063204603F0E3FA216B012901D072
:104EA000012038BD21680A684968009121680C31E9
:104EB00051E8002F42F0100241E80023002BF5D109
:104EC00038BD18B5034690F84200202801D00220D2
:104ED00018BD61B15AB1012018630020586318460B
:104EE00003F006FB0028F3D1196B012901D0012042
:104EF00018BD19680A684968009119680C3151E8B1
:104F0000002F42F0100241E80024002CF5D118BD1A
:104F100070B50C46054602F071FE21462846BDE8F4
:104F20007040FDF77FBC10B5044602F057F92046EB
:104F300000F0EAFA2046BDE81040FDF74DB8000049
:104F4000F8B5016804460868CA684B6910F00F0F8D
:104F50004FF0000559D003F0010602F49077374373
:104F600065D0C10705D0D10503D5616C41F00101C1
:104F70006164410705D5D90703D0616C41F0020196
:104F80006164810705D5D90703D0616C41F0040144
:104F90006164010707D502F02001314303D0616C41
:104FA00041F008016164616C00293AD0800604D5A3
:104FB000900602D5204603F095F920684069616C9F
:104FC000C0F38010090700D460B3204603F055F900
:104FD00020684069400621D52068143050E8001F41
:104FE00021F0400140E80012002AF5D1E06BA8B1A1
:104FF0006D494163E06BFEF703FC002811D0E06BC4
:10500000416B01B0BDE8F040084783060FD5930619
:105010000DD52046BDE8F84003F064B92046FFF7FF
:1050200082FFF8BD2046FFF77EFF6564F8BD266B62
:105030002023012E7CD1C6067AD5D60678D50868FD
:105040004868009048694FF00206400640D5E16B81
:10505000086840680004000CE8D0A28D8242E5D9BF
:10506000E085886920282DD020680C3050E8001F8A
:1050700021F4807140E80012002AF5D12068143034
:1050800050E8001F21F0010140E80012002AF5D18C
:105090002068143050E8001F21F0400140E8001261
:1050A000002AF5D184F84230256320680C3050E89E
:1050B000001F21F0100140E80012002AF5D1E06B3A
:1050C000FEF77AFB6663A08DE18D401A81B22AE07B
:1050D000A08DE18D401A81B2E08D0028A6D0002974
:1050E000A4D022680C3252E8000F20F4907042E8FD
:1050F0000007002FF5D12068143050E8002F22F06F
:10510000010240E80027002FF5D184F842302563E2
:1051100020680C3050E8002F22F0100240E80023F5
:10512000002BF5D166632046FFF7F2FEF8BDFFE7DE
:1051300005062BD5150629D594F841002128F5D16F
:10514000A068B0F5805F01D12069B0B1206A411C30
:105150002162216800784860E08C401E0004000C49
:10516000E084E3D12068C16821F08001C16020683B
:10517000C16841F04001C160D8E7206A0088C0F3EF
:1051800008004860206A801C2062E5E74006CDD513
:105190005006CBD5CA68204622F04002CA6084F887
:1051A000413000F0A5F9C1E73181000870B5040075
:1051B00004D094F84100002510B106E0012070BD34
:1051C00084F84050204600F023F8242084F8410061
:1051D0002068C16821F40051C160204603F0E4F862
:1051E0002068016921F4904101612068416921F042
:1051F0002A0141612068C16841F40051C1606564C1
:10520000202084F8410084F842006563002070BDCE
:105210002DE9F04786B00024009401940294039491
:105220000546DFF82C82D0F800C08A48022103220C
:10523000894B102780264FF480694FF0200AC4451F
:1052400058D1D0F818C04CF4804CC0F818C0D0F831
:1052500018C00CF4804CCDF810C0D0F818C04CF039
:10526000040CC0F818C08069039200F00400049098
:105270000802CDE90001694698461846FEF7CEFCC3
:10528000CDE90094694640460294FEF7C7FCDFF87A
:10529000D08172494046B146C0E90014C0E90246D7
:1052A000C8F81040C8E9054AC8F81C40FEF79EFB44
:1052B00008B1FDF721FF6A4E6848C5F83C804436C6
:1052C0001438C8F824503060C6E90174C6E9039464
:1052D0007461B4613046F461FEF788FB08B1FDF7F4
:1052E0000BFFAE630022052125207562FEF72AFE22
:1052F000252061E0DFF86C81C44562D1D0F81CC084
:105300004CF4003CC0F81CC0D0F81CC00CF4003CAD
:10531000CDF810C0D0F818C04CF0040CC0F818C07C
:105320008069039200F0040004900420CDE900019C
:10533000694698461846FEF771FC0820CDE900043E
:105340000120029069464046FEF768FCDFF81081B4
:10535000424908F1880840462831C0E90246C8F8A9
:105360001040C8F81440C8F81840C8E90017C8F839
:105370001C40FEF73BFB08B1FDF7BEFE384F374837
:10538000C5F83880CC371430C8F82450C7E9000479
:10539000C7E902463C61C7E9054A3846FC61FEF7A9
:1053A00025FB08B1FDF7A8FEEF63002205212620AA
:1053B0007D62FEF7C7FD2620FEF7B6FD06B0BDE80C
:1053C000F087294B9C45F9D1C36943F48023C3611D
:1053D000C36903F480230493836943F00803836162
:1053E0008069CDE9009100F00800CDE90320DFF8E5
:1053F0007C8069464046FEF711FC4FF40060CDE921
:105400000004694640460294FEF708FCDFF860801D
:10541000124940463C39C0E90246C8F81040C8F875
:105420001440C8F81840C8E90017C8F81C40FEF737
:10543000DDFA08B1FDF760FEC5F8388000220621CC
:105440002720C8F82450FEF77DFD2720B4E7000090
:10545000003801400010024000080140580002409E
:10546000900300200044004000480040000C014030
:10547000A00400207047704770B5044690F84100C2
:10548000202801D0022070BD49B342B32162A2841A
:10549000E28400206064212384F84130A56B114B25
:1054A000AB62A56B104BEB62A56B104B2B63A36B30
:1054B0005863256813462A1DA06BFEF7C5FA2168BC
:1054C0006FF0400008602068143050E8001F41F081
:1054D000800140E80012002AF5D1002070BD0120B3
:1054E00070BD00002F820008718200084181000811
:1054F00010B5044602F0D5FD2046BDE8104000F08E
:10550000B5B97047FEE7000070B5044619488442FB
:105510002ED1606CC0062BD5174D6878002827D097
:10552000012028702068143050E8001F21F080010D
:1055300040E80012002AF5D120680C3050E8001F26
:1055400021F0400140E80012002AF5D1A06B08B11B
:10555000FEF732F9202084F84100EFF3108072B694
:105560000021697000B962B6BDE8704000F076B8FD
:1055700070BD0000480300200001002070B5EFF36B
:10558000108472B600200B4D6880A8806870287067
:10559000FEF73AFCA86004B962B607494FF4E1305F
:1055A00048600846FFF702FEBDE8704003A000F027
:1055B00014B8000000010020480300204C4F472091
:1055C00069732072656164790D0A0000401C80B225
:1055D000B0F5007F00D3002070472DE9F0410600B0
:1055E00014D0FAF70DFF04464FF480374FF6FF78DA
:1055F0000AE0BC4201D3454600E0A5B22946304648
:1056000000F046F92E44641B002CF2D1BDE8F08175
:105610000FB470B5C8B04C9A002A19D04FF49076E8
:1056200000244DAB31466846FAF7A4FE0A4D002827
:1056300001DA01200BE0B04202D340F21F10012436
:1056400081B2684600F024F9002C01D002202870B5
:1056500048B070BC5DF814FB000100202DE9F04754
:105660000026EFF3108572B61D4C607818B960887B
:10567000A188884202D175B3BDE8F087012060702F
:10568000A788DFF8608008F5007909E018F80710AE
:1056900009F806103846FFF799FF761C0746B6B2A0
:1056A0006088874201D0402EF0D305B962B600254C
:1056B0005EB132460C490D48FFF7DEFE0100217055
:1056C000EFF3108072B608D002E0EFF3108072B6EC
:1056D00065700028D0D162B6CEE7A780F9E7000058
:1056E00000010020683C0020683E002048030020A4
:1056F00000F08CBD2DE9F04F9DB0FEF785FB5949B8
:105700008A68821AB2F57A7F7DD3886000F056FFEE
:1057100006004FF02B0B03D570424FF02D0B06B255
:1057200000F0FCFE05004FF02B0702D540422D276C
:1057300005B200F0EDFE824600F00AFF814601F05E
:1057400009FF0B9000F05CFC0A9001F04FF91790F4
:1057500001F044F9169000F013FF159000F00AFFD5
:10576000149001F035F9139001F06AF9129001F0EC
:105770004BF9119001F042F9109002F001FF0F90E7
:1057800001F07EFC0E9000F0B9FC0D9000F072FB71
:105790000C90032000F0E2FE0990042000F0DEFEF1
:1057A0000A24B9FBF4F1B9FBF4FC04FB1191CDE937
:1057B00006C1BAFBF4F1BAFBF4F904FB11A8089096
:1057C000CDF8148000F014FF039000F017FF95FB54
:1057D000F4F104FB115101F0FF0A96FBF4F195FB83
:1057E000F4F596FBF4F204FB11610DF1500ECBB20F
:1057F0009EE812110DF1540E8EE812110DF1400EBB
:105800009EE8121100E029E00DF1440E8EE812111D
:105810000DF1300E9EE812110DF1340E8EE81211CA
:10582000DDE9088C0B990991CDE90B8C05AC94E866
:10583000021106ACCDF8149084E802110399CDF85A
:1058400008A0CDE90301CDE9007559460648FFF7E8
:10585000DFFE1DB0BDE8F04F01F0DCBE1DB0BDE8BD
:10586000F08F000000010020E4AB000806498842E8
:1058700009D1EFF3108072B60021044A517000B9CB
:1058800062B6FFF7EBBE704748030020000100201E
:105890002DE9F0470F465FEA000823D0002F21D002
:1058A000EFF3108672B600250F4CDFF840900FE042
:1058B0006088FFF78BFEA188884201D102200AE0B0
:1058C00018F80520638809F8032060806D1CADB2CC
:1058D000BD42EDD30020207006B962B6BDE8F047A6
:1058E000FFF7BCBEBDE8F08700010020683C002047
:1058F000FEB500242B4800940194294902940160CC
:1059000089158160012606730475062505614FF42B
:1059100060214460C161FDF7D9FD08B1FDF7ECFBE2
:1059200004270097CDE9016569461E48FDF7DEFCB6
:1059300008B1FDF7E1FB05260220CDE900606946CC
:105940001848FDF7D3FC08B1FDF7D6FB07200090FF
:105950000320019069461348FDF7C8FC08B1FDF724
:10596000CBFB0820CDE9000769460E48FDF7BEFCD9
:1059700008B1FDF7C1FB0920CDE9000669460948D9
:10598000FDF7B4FC08B1FDF7B7FB69460548CDE962
:105990000045FDF7ABFC002801D0FDF7ADFBFEBDD7
:1059A000002401406C0100201D4808B5416941F008
:1059B000010141614069002200F0010000900621D0
:1059C0000B20FEF7BFFA0B20FEF7AEFA00220621ED
:1059D0000C20FEF7B7FA0C20FEF7A6FA00220621EB
:1059E0000E20FEF7AFFA0E20FEF79EFA00220621E7
:1059F0000F20FEF7A7FA0F20FEF796FA00220621E5
:105A00001020FEF79FFA1020FEF78EFA00220621E2
:105A10001120FEF797FABDE808401120FEF784BA7E
:105A20000010024010B5FCF7BBFA1C4A00211C48CC
:105A300002F04EFF1B4C194A0021206024321A4804
:105A400002F046FF154A606048320021174802F014
:105A50003FFF124AA0606C320021154802F038FF67
:105A60000E4AE06090320021124802F031FF0B4AEA
:105A70002061B4320021104802F02AFF074A606119
:105A8000D83200210D4802F023FF044AA061FC3205
:105A900000210B4802F01CFFE06110BD9CA700082C
:105AA0003D68000800000020C56E0008715F000816
:105AB000FD6100088D850008D51F0008F15600081B
:105AC000356C0008F0B585B0002525480095019596
:105AD00002950395816941F020018161816901F09E
